:100000000C943E000C945B000C945B000C945B0021
:100010000C945B000C945B000C945B000C945B00F4
:100020000C945B000C945B000C945B000C945B00E4
:100030000C945B000C945B000C945B000C945B00D4
:100040000C945B000C945B000C945B000C945B00C4
:100050000C945B000C945B000C945B000C945B00B4
:100060000C945B000C945B000C945B000C945B00A4
:100070000C945B000C945B000C945B0011241FBE7D
:10008000CFEFD8E0DEBFCDBF11E0A0E0B1E0E2EEFF
:10009000FCE002C005900D92AC31B107D9F721E028
:1000A000ACE1B1E001C01D92A032B207E1F70E94BD
:1000B00069060C946F060C94000042B181E090E058
:1000C0009C0100901A0102C0220F331F0A94E2F72C
:1000D000242B22B945B19C010090180102C0220FC7
:1000E000331F0A94E2F7242B25B945B19C010090F7
:1000F000160102C0220F331F0A94E2F72095242331
:1001000025B942B19C010090140102C0220F331F97
:100110000A94E2F72095242322B945B19C0100906E
:10012000120102C0220F331F0A94E2F72095242304
:1001300025B942B19C010090100102C0220F331F6B
:100140000A94E2F72095242322B942B19C01009041
:100150000E0102C0220F331F0A94E2F7242B22B9AA
:1001600042B19C0100900C0102C0220F331F0A947F
:10017000E2F7242B22B942B19C0100901E0102C07B
:10018000220F331F0A94E2F7242B22B942B19C01BB
:1001900000900A0102C0220F331F0A94E2F7209553
:1001A000242322B945B19C010090080102C0220F0E
:1001B000331F0A94E2F72095242325B942B19C010C
:1001C0000090060102C0220F331F0A94E2F7209527
:1001D000242322B945B19C0100901C0102C0220FCA
:1001E000331F0A94E2F72095242325B945B19C01D9
:1001F0000090040102C0220F331F0A94E2F72095F9
:10020000242325B945B19C010090020102C0220FB0
:10021000331F0A94E2F72095242325B925B10090D5
:10022000000102C0880F991F0A94E2F7809582238B
:1002300085B983EF91E00197F1F700C0000042B16A
:1002400081E090E09C0100901A0102C0220F331F50
:100250000A94E2F7242B22B945B19C0100901801C1
:1002600002C0220F331F0A94E2F72095242325B9F8
:1002700045B19C010090160102C0220F331F0A9461
:10028000E2F7242B25B942B19C010090140102C071
:10029000220F331F0A94E2F7242B22B945B19C01A7
:1002A0000090120102C0220F331F0A94E2F7242BA0
:1002B00025B942B19C010090100102C0220F331FEA
:1002C0000A94E2F7242B22B942B19C0100900E015E
:1002D00002C0220F331F0A94E2F72095242322B98B
:1002E00042B19C0100900C0102C0220F331F0A94FE
:1002F000E2F7242B22B942B19C0100901E0102C0FA
:10030000220F331F0A94E2F72095242322B942B129
:100310009C0100900A0102C0220F331F0A94E2F7E9
:10032000242B22B945B19C010090080102C0220F84
:10033000331F0A94E2F72095242325B942B19C018A
:100340000090060102C0220F331F0A94E2F72095A5
:10035000242322B945B19C0100901C0102C0220F48
:10036000331F0A94E2F72095242325B945B19C0157
:100370000090040102C0220F331F0A94E2F7209577
:10038000242325B945B19C010090020102C0220F2F
:10039000331F0A94E2F72095242325B925B1009054
:1003A000000102C0880F991F0A94E2F7809582230A
:1003B00085B983EF91E00197F1F700C0000042B1E9
:1003C00081E090E09C0100901A0102C0220F331FCF
:1003D0000A94E2F72095242322B945B19C010090AC
:1003E000180102C0220F331F0A94E2F7242B25B90B
:1003F00045B19C010090160102C0220F331F0A94E0
:10040000E2F72095242325B942B19C010090140104
:1004100002C0220F331F0A94E2F7242B22B945B100
:100420009C010090120102C0220F331F0A94E2F7D0
:10043000242B25B942B19C010090100102C0220F6B
:10044000331F0A94E2F72095242322B942B19C017C
:1004500000900E0102C0220F331F0A94E2F7242BF2
:1004600022B942B19C0100900C0102C0220F331F3F
:100470000A94E2F72095242322B942B19C0100900E
:100480001E0102C0220F331F0A94E2F72095242395
:1004900022B942B19C0100900A0102C0220F331F11
:1004A0000A94E2F72095242322B945B19C010090DB
:1004B000080102C0220F331F0A94E2F7242B25B94A
:1004C00042B19C010090060102C0220F331F0A9422
:1004D000E2F72095242322B945B19C0100901C012C
:1004E00002C0220F331F0A94E2F72095242325B976
:1004F00045B19C010090040102C0220F331F0A94F1
:10050000E2F72095242325B945B19C010090020112
:1005100002C0220F331F0A94E2F72095242325B945
:1005200025B10090000102C0880F991F0A94E2F7DC
:100530008095822385B983EF91E00197F1F700C0A0
:10054000000042B181E090E09C0100901A0102C0DD
:10055000220F331F0A94E2F72095242322B945B1D4
:100560009C010090180102C0220F331F0A94E2F789
:10057000242B25B945B19C010090160102C0220F21
:10058000331F0A94E2F7242B25B942B19C01009055
:10059000140102C0220F331F0A94E2F7242B22B960
:1005A00045B19C010090120102C0220F331F0A9432
:1005B000E2F7242B25B942B19C010090100102C042
:1005C000220F331F0A94E2F7242B22B942B19C0177
:1005D00000900E0102C0220F331F0A94E2F7242B71
:1005E00022B942B19C0100900C0102C0220F331FBE
:1005F0000A94E2F72095242322B942B19C0100908D
:100600001E0102C0220F331F0A94E2F72095242313
:1006100022B942B19C0100900A0102C0220F331F8F
:100620000A94E2F72095242322B945B19C01009059
:10063000080102C0220F331F0A94E2F720952423F9
:1006400025B942B19C010090060102C0220F331F60
:100650000A94E2F7242B22B945B19C0100901C01B9
:1006600002C0220F331F0A94E2F72095242325B9F4
:1006700045B19C010090040102C0220F331F0A946F
:10068000E2F72095242325B945B19C010090020191
:1006900002C0220F331F0A94E2F72095242325B9C4
:1006A00025B10090000102C0880F991F0A94E2F75B
:1006B0008095822385B983EF91E00197F1F700C01F
:1006C000000042B181E090E09C0100901A0102C05C
:1006D000220F331F0A94E2F72095242322B945B153
:1006E0009C010090180102C0220F331F0A94E2F708
:1006F000242B25B945B19C010090160102C0220FA0
:10070000331F0A94E2F72095242325B942B19C01B6
:100710000090140102C0220F331F0A94E2F7242B29
:1007200022B945B19C010090120102C0220F331F73
:100730000A94E2F7242B25B942B19C0100901001E4
:1007400002C0220F331F0A94E2F72095242322B916
:1007500042B19C0100900E0102C0220F331F0A9487
:10076000E2F7242B22B942B19C0100900C0102C097
:10077000220F331F0A94E2F72095242322B942B1B5
:100780009C0100901E0102C0220F331F0A94E2F761
:100790002095242322B942B19C0100900A0102C095
:1007A000220F331F0A94E2F72095242322B945B182
:1007B0009C010090080102C0220F331F0A94E2F747
:1007C0002095242325B942B19C010090060102C066
:1007D000220F331F0A94E2F72095242322B945B152
:1007E0009C0100901C0102C0220F331F0A94E2F703
:1007F000242B25B945B19C010090040102C0220FB1
:10080000331F0A94E2F72095242325B945B19C01B2
:100810000090020102C0220F331F0A94E2F72095D4
:10082000242325B925B10090000102C0880F991F2B
:100830000A94E2F78095822385B983EF91E00197CE
:10084000F1F700C0000042B181E090E09C0100900F
:100850001A0102C0220F331F0A94E2F720952423C5
:1008600022B945B19C010090180102C0220F331F2C
:100870000A94E2F7242B25B945B19C01009016019A
:1008800002C0220F331F0A94E2F7242B25B942B18C
:100890009C010090140102C0220F331F0A94E2F75A
:1008A0002095242322B945B19C010090120102C079
:1008B000220F331F0A94E2F72095242325B942B171
:1008C0009C010090100102C0220F331F0A94E2F72E
:1008D000242B22B942B19C0100900E0102C0220FCC
:1008E000331F0A94E2F7242B22B942B19C010090F5
:1008F0000C0102C0220F331F0A94E2F72095242333
:1009000022B942B19C0100901E0102C0220F331F88
:100910000A94E2F72095242322B942B19C01009069
:100920000A0102C0220F331F0A94E2F72095242304
:1009300022B945B19C010090080102C0220F331F6B
:100940000A94E2F72095242325B942B19C01009036
:10095000060102C0220F331F0A94E2F720952423D8
:1009600022B945B19C0100901C0102C0220F331F27
:100970000A94E2F72095242325B945B19C01009003
:10098000040102C0220F331F0A94E2F7242B25B979
:1009900045B19C010090020102C0220F331F0A944E
:1009A000E2F72095242325B925B10090000102C06B
:1009B000880F991F0A94E2F78095822385B983EF07
:1009C00091E00197F1F700C0000042B181E090E0B2
:1009D0009C0100901A0102C0220F331F0A94E2F713
:1009E000242B22B945B19C010090180102C0220FAE
:1009F000331F0A94E2F72095242325B945B19C01C1
:100A00000090160102C0220F331F0A94E2F7242B34
:100A100025B942B19C010090140102C0220F331F7E
:100A20000A94E2F7242B22B945B19C0100901201EF
:100A300002C0220F331F0A94E2F7242B25B942B1DA
:100A40009C010090100102C0220F331F0A94E2F7AC
:100A5000242B22B942B19C0100900E0102C0220F4A
:100A6000331F0A94E2F72095242322B942B19C0156
:100A700000900C0102C0220F331F0A94E2F7242BCE
:100A800022B942B19C0100901E0102C0220F331F07
:100A90000A94E2F72095242322B942B19C010090E8
:100AA0000A0102C0220F331F0A94E2F72095242383
:100AB00022B945B19C010090080102C0220F331FEA
:100AC0000A94E2F72095242325B942B19C010090B5
:100AD000060102C0220F331F0A94E2F72095242357
:100AE00022B945B19C0100901C0102C0220F331FA6
:100AF0000A94E2F72095242325B945B19C01009082
:100B0000040102C0220F331F0A94E2F72095242328
:100B100025B945B19C010090020102C0220F331F8C
:100B20000A94E2F7242B25B925B10090000102C0F8
:100B3000880F991F0A94E2F78095822385B983EF85
:100B400091E00197F1F700C0000042B181E090E030
:100B50009C0100901A0102C0220F331F0A94E2F791
:100B6000242B22B925B10090180102C0880F991FCB
:100B70000A94E2F7822B85B945B181E090E09C01AF
:100B80000090160102C0220F331F0A94E2F720954D
:100B9000242325B942B19C010090140102C0220F08
:100BA000331F0A94E2F72095242322B945B19C0112
:100BB0000090120102C0220F331F0A94E2F7209521
:100BC000242325B942B19C010090100102C0220FDC
:100BD000331F0A94E2F72095242322B942B19C01E5
:100BE00000900E0102C0220F331F0A94E2F7242B5B
:100BF00022B942B19C0100900C0102C0220F331FA8
:100C00000A94E2F7242B22B942B19C0100901E0104
:100C100002C0220F331F0A94E2F72095242322B941
:100C200042B19C0100900A0102C0220F331F0A94B6
:100C3000E2F72095242322B945B19C0100900801D8
:100C400002C0220F331F0A94E2F72095242325B90E
:100C500042B19C010090060102C0220F331F0A948A
:100C6000E2F72095242322B945B19C0100901C0194
:100C700002C0220F331F0A94E2F72095242325B9DE
:100C800045B19C010090040102C0220F331F0A9459
:100C9000E2F72095242325B945B19C01009002017B
:100CA00002C0220F331F0A94E2F72095242325B9AE
:100CB00025B10090000102C0880F991F0A94E2F745
:100CC000822B85B983EF91E00197F1F700C0000016
:100CD00008958FEF81B984B90E945D00FDCFF8942B
:020CE000FFCF44
:100CE20004000100060003000700050007000600DB
:0C0CF200020005000100030002000400E5
:00000001FF
